:020000020000FC
:2000000034044000148C40083A6800080000000000000000000000000000000000000000D6
:2000200004EDFFDE1500C0DF150240D8150380D81504C0D8150500D9150640D9150780D952
:200040001508C0D97A300B00150900DA150A40DA150B80DA150CC0DA150D00DB150E40DB94
:20006000150F80DB1510C0DB151140D904FFFFEB1512C0DB3A3109004C00802826030010B2
:2000800026020020C00F000106070000151240DF17FFBFE804FF3FE9001D00011E020010BF
:2000A00004FFFFEB1512C0DB171140D9171240DF1700C0DF7A700128170240D8170380D89C
:2000C0001704C0D8170500D9170640D9170780D91708C0D9170900DA170A40DA170B80DA62
:2000E000170CC0DA170D00DB170E40DB170F80DB1710C0DB0413C0DE3A0880EF04F9FFDE81
:200100001506C0DF150500DF040500DF3A8801003A31050015FEBFE017FEBFE015FBBFE0FC
:2001200015FD3FE04400800015FCBFE017FBFFE017FCBFE03A70841826140010340880002B
:200140000436821017FDFFE0FA9006183A88C5101700C010340880000436821017FD3FE1FE
:20016000FA9008203A88051104018010170080103A8809103AE83E183A8801003A31050033
:2001800015FFBFE017FFBFE00607000017FCBFE03A88851015FCBFE017FDBFE044008010AA
:2001A00015FDBFE006E13F0015FBBFE017FBBFE01EDB3F103A8801003A8801003A8837E061
:2001C0001701C0DF170000DF0402C0DE3A2800F804FBFFDE1504C0DF150300DF040300DF03
:2001E00015FF3FE1C4FFBF0015FDBFE015FE3FE01729A0D0260700101729A0D017FDFFE0D6
:2002000017FEBFE117FF7FE13A8809183AE83E10060200003AA03D003A8805003A8837E0A1
:200220001701C0DF170000DF0402C0DE3A2800F83408C0061400C4DE3408800614ABA1D663
:200240003408800014BB81103408C0001476C2182603C010150000100401801036FDFF102D
:2002600040FC01018004020106FF3F0004FDFFDE150140DC150000DC3A8823283A88212064
:20028000440140013A8809301502C0DF40CC01013A880B103A88098880C00101C4FFBF1015
:2002A0000402C080350000184400000135040081CC3F0011350000813AD20410CC3F80101F
:2002C0003501808004208000350080181702C0DF170140DC170000DC0403C0DE3A2800F899
:2002E0004C0080313A884B293A888B2935034021040400210424800035008020370080203F
:200300008C0080101EFD3F1037008020FAD104104C0080103A2800F80404C0202602002833
:20032000041A8000060100000408800035008018370080188C0080101EFD3F103703802090
:200340003A2800F8CC3F40293503402104040021260200300414800006010000040480008E
:2003600035008020370080208C0080101EFD3F1037008020FAD104104C0080103A2800F85F
:2003800004FEFFDE150000DC170520D4CC3F4021040E00011501C0DF80C001018300C08044
:2003A000CC3F80102E05C0101706A0D00401C0004500C01044008000060100003A880500A6
:2003C0001701C0DF170000DC0402C0DE3A2800F8CC3F4029BAD00A28340880013A880500C1
:2003E00004418831CC3FC010260540193700C0301500C020440080100401002106F93F004C
:200400003A2800F834088000CC3F002104388810350000113A2800F804FCFFDE150000DC58
:200420003408000404280884150280DC041280043A880B903A8809803A880D001503C0DF89
:20044000150140DC002E0001440040043A880B883A8809803A880D00403400013A880D8878
:200460003A88098004014001403400013A880B903A8809803A880D00002E00013A88098085
:200480003A880D0084004001403400013A8809803A880D00440B4001403400013A880D88DD
:2004A0003A8809803A880B00403400013A880B903A8809803A880D00002E00013A880980BE
:2004C0003A880D00C4004001403400013A8809803A880D00C40D4001403400013A880D88DB
:2004E0003A880B003A8809801703C0DF170280DC170140DC170000DC0404C0DE4134000173
:2005000004FCFFDE150000DC3408000404280884150280DC041480043A880B903A8809805E
:200520003A880D001503C0DF150140DC002E00013A8809803A880D003A880B004034000178
:200540003A8809803A880D003A880B0044004004403400013A880D883A880B903A880980B8
:20056000002E00013A880B883A880980803100013A880B903A8809803A880D00002E000154
:200580003A8809803A880D003A880B00403400013A880B883A8809803A880D00403400011B
:2005A0003A880D883A88098084164001403400013A880B903A8809803A880D00002E0001A3
:2005C0003A8809803A880D003A880B00403400013A880B883A8809803A880D0040340001DB
:2005E0003A880B903A8809803A880D88002E00013A880B883A8809801703C0DF170280DCFF
:20060000170140DC170000DC0404C0DE813100013408800004318810C400C0003500C01048
:200620003408000104330821440080003700C02026FEBF1834088000043088104400C000BB
:200640003500C0103A2800F804F2FFDE150400DC34080004150DC0DF150C00DF150BC0DDB5
:20066000150A80DD150940DD150800DD1507C0DC150680DC150540DC0418088484018000B7
:2006800035008080C4018000350080801704A0D034080001041CE0D1BAD00610BA91041013
:2006A000840080013A880B0004080821150200D8150100D8150000D8051CE0D0451CA0D0C7
:2006C000001A0201B4008001B49840013408000104A8A131048056290428082134080005E7
:2006E000340880043400FE0434084004150380D8044208A5C0260001044488948041000114
:20070000C4FFFF9C0445488C370080A0150380D8170380D84C0080101EFB3F1034080001A4
:200720000410400104260221003D0001340800013A880B0004D601210410800140E3010119
:20074000170560D1452220D01706A0D00300C028C41400010500C0108300C0288500C0100F
:20076000C300C028C500C010C400C0004500C0100300C028267F0219360CC0204408000186
:20078000264700193604C020261A0018040800012628001906D603008408000126600019E2
:2007A000040B0001260A031906D1030044180001263E02193605C02044150001267B0019F8
:2007C000841500012699001906C903000423000126BC0019442300012672011984180001FB
:2007E0001EC30319051A20D0440040050414800506EE01004401C0000502C0104404C000EE
:200800004502C0104400C0008502C010C50200100503C0104500C0103408800134080001A8
:200820003A88050004D68131044008210410C00006B10300030280284400C0002610C010B3
:20084000261200108400C0001E12C01084018000350080803A8801003A8801003A88010089
:200860003A8801003A8801003A8801003A8801003A8801003A8801003A880100060300001A
:20088000840180003500808006050200C401800006FC3F00440080004522A0D006000200E8
:2008A0000401000100380001CC3F80101EDA3F10051A20D004E07F051705E0D1031AA0D046
:2008C0008300C0382EF6C1103A8885103A8885103A8887380402C0180300001904028010E9
:2008E0003A888F383AB048250500001934080001150200D8150100D8150000D8040180016D
:200900003A880B0004100821001A0201150380D8031AA0D044008010051AA0D006E63F0025
:200920000401000100380001CC3F80101EBA3F10051A20D084004005170520D1031AA0D044
:200940001706A0D18300C0202E5BC0103A8885103A8887200402C018030040190402C0117C
:200960003A888510CC1F402984028010050040193A8885303A88CF2134080001150200D803
:20098000150180D8150040DD840080013A880B0004100821001A0201150380D8031AA0D08E
:2009A00044008010051AA0D006E33F000401000100380001CC3F80101E973F10051A20D0BF
:2009C00004E07F051705E0D1031AA0D08300C0382EB3C1103A8885103A8885103A888738F9
:2009E0000402C01803000019040280103A888F383AB048250500001934080001150200D83D
:200A0000150100D8150000D8040180014400400104100821001A0201150380D8031AA0D099
:200A200044008010051AA0D006E63F000401000100380001CC3F80101E773F10051A20D05B
:200A400084004005170520D1031AA0D01706A0D18300C0202E18C0103A8885103A8887206C
:200A60000402C018030040190402C0113A888510CC1F402984028010050040193A888530CF
:200A80003A88CF2134080001150200D8150180D8150040DD84008001440040010410082111
:200AA000001A0201150380D8031AA0D044008010051AA0D006E33F004400800045008030D8
:200AC00006553F004302C0284303402D3A9608188302C028451A60D53A9406183AB0C620EF
:200AE000030300293AB00819C302C0283A9206183AB0C620830400291521E0D01EF8022087
:200B0000C3040029C40080011E3D80210302C0281EF30218340800013A880D000414400127
:200B200004280821002E00014522A0D01705A0D0340800013A880D00030440110428082115
:200B40003A882B00403400014322E0D0340800013A880D003A88C5104522A0D01705A0D018
:200B60000428082143044011403400014322E0D03A88C5104522A0D0431AE0D01705A0D0F7
:200B8000C4FFFF180E0DC0A83A88451503084011340800013A880D000428082140340001AA
:200BA0004322E0D004E20401440040AD3A88C5104522A0D0800A020106EF3F003A886B1593
:200BC000030840A944008005340800013A880DB004280821403400014322E0D004E20401D2
:200BE0003A88C5104522A0D0800A02014322E0D01706A0D01EBA02184500801506063F0041
:200C0000440080011EB6822103028029840000011EB302311E040018151820D0151720D0EE
:200C2000151520D0152320D01717E0D5044080003AC8C5151516A0D00E158000CC3F40ADB9
:200C40000E0280A8151560D5060100001515A0D01715A0D53408000104E601213A880DB0F3
:200C6000040840293A88C9253A88ADBDC0CE01011517A0D5044080001E0200A80E018005D2
:200C80001517A0D01717E0D03AC8C5101516A0D01717A0D0C43FC0000E2880181718E0D159
:200CA0003A70C4381E1000100E0100383A88CF383AD20F383408000144008001CC3FC039E7
:200CC0003A880B000400082100A10101CC3F8010260300104322A0D0440080104522A0D023
:200CE0004322A0D01E0F0010340880001718A0D104E6811034080001150100D8150080D873
:200D00000440C0013A880B000400082180890101CC3F8010260300104322A0D0440080104C
:200D20004522A0D01718A0D0151720D0440080101518A0D0044080001516A0D0431AE0D53F
:200D4000171560D50E0FC0AD3AC86DBD170560D1171760D53408000104E601213A88492553
:200D60003A880DB8040840291515A0D5C0CE01013A886BB504408000151760D53AC86B15BF
:200D8000151660D51723A0D13440C0001706A0D03A888DB91523A0D1365182194322E0D09F
:200DA000064E02004302C0283A9608188302C0283A9406183AB0C620030300293AB008195D
:200DC000C302C0283A9206183AB0C6201521E0D04303C028451AE0D08304C0281E400218A2
:200DE000C304C028C40000011E3B00190302C0281E3B0218340800013A880D000414400148
:200E000004280821002E00014522A0D01705A0D0340800013A880D00030440110428082132
:200E20003A882B00403400014322E0D0340800013A880D003A88C5104522A0D01705A0D035
:200E40000428082143044011403400014322E0D034080001440080013A88C5100414400129
:200E6000042808214522A0D0002E00014322E0D03A88C5104522A0D0431AA0D01706A0D535
:200E8000C4FFBF100E0880A8340800013A880B00042808213A886DB580310001050880B050
:200EA000440040AD06F43F004400C005340800013A880BB804280821803100014322E0D0E1
:200EC0003A886BB5050880A81706A0D01E0402184500C01506503E00440000011E00021906
:200EE000830380283408400504E641AD3A960C10C3038028340800010440C0013A940410ED
:200F0000040008213AB08430430480293AB08C1103048028150040DD3A880B003A92041001
:200F20003AB08C301518A0D180760101CC3F8010260300104322A0D0440080104522A0D021
:200F40001706A0D0431A20D13A880700040880100EE001193A884B1D030040294400C01897
:200F600044008010C5FF7F1106F93F003A8887180302C0181E1200181706E0D03A88851061
:200F80003A8885103A8885181704E0D005020010450200103AD20818C502C0108502001107
:200FA000031AA0D044008010051AA0D01705E0D0031AA0D08300001936EC3F11063800009C
:200FC0001E33401D340800013A880D000412400104280821002E0001340800013A880DA8C8
:200FE0003A880B0004280821150380D840340001340800013A880DA804124001042808218A
:20100000150380D8002E0001340800013A880B0004280821150380D880310001CC3F001194
:201020001C2000218402400104E03F2140CC0101340800013A880BA8042808210D03A0D0B3
:2010400080310001150380D8170380D80C208010260300100B03A0D0440180100D03A0D034
:20106000031AE0D0170520D13A88C5183A88C720170620D10302C0183A8885103A888520A5
:201080000502C010450280150B03E0D006C13F004322A0D0440080104522A0D006C03F0054
:2010A0004400C0001706A0D006DA3D000401000100380001CC3F80101ED73D10051A20D057
:2010C000C4FF43051705E0D0031AA0D0830000192E8001113A8885103A8885103A88871841
:2010E000030280181E1C0010430280181E1A001083028018C302C0184519A0D0CC3F8010C1
:201100003A9204100519E0D0CC3FC0183AB0C410161180A8BAD106101504A0D034080001CA
:201120003A8885103A888510150200D8150100D8150000D8041CE0D1840080013A880B0094
:2011400004080821051CE0D0451CA0D0001A0201150380D8060300004322A0D04400801079
:201160004522A0D0031AA0D044008010051AA0D006D43F004302C028430380293A96081883
:201180008302C028451AA0D13A9406183AB0C620030300293AB00819C302C0280302402901
:2011A0003A9206183AB0C6201521E0D04400000126050029264A01288400C0001E82C02891
:2011C000151020D1068000001E02001884028000051FA0D0CC3F80311E020030840780008A
:2011E000051FA0D044008000C402C00044004001F4024005740100027402C00734F8BD05AF
:201200000511A0D0040440023A881518040580013A8809284401C0010405C00204060003B4
:20122000040D4003340480038400C00304986BAD04002842C4FFEFFFC4FFBFB50311A0D0CA
:2012400026753D10031FA0D02612C010360A80188402C0051E57C015150120D21500E0D7CB
:20126000151420D23500C08C3500808D051FE0D0051120D1060700002618C0128407C00548
:201280001E4CC015C4FFBF0035008088051F20D006440000370080903408C005CC0480104A
:2012A0000444C8BD1E0340123500C08C051FA0D1051120D1370080B8CC0480101E02401191
:2012C000051FA0D2051160D1370080B8CC0480101EDA3F10051F20D006D83F00151320D3CF
:2012E0001713A0D0362E8068170520D73A88B9E0030280E032C005102CC0FF15430280E089
:2013000032C005103AD20510EC3F80103AB084B88302C0E532C02FB83AD42FB80CC0FFBD44
:201320003AB0C415C302C0E532C02FB83AD62EB8170020D73AB084B81714E0D51512A0D006
:201340003611C0E53A88AFBB350080B81714A0D0040180101514A0D0370080903408C005F7
:20136000CC0280100444C8BD26FBFF13370080B8CC0280101E020010051F20D0151460D5A0
:20138000370080B8060200001706A0D04500C0111713A0D0040180101513A0D006D03F0057
:2013A000051FA0D11706A0D0051120D04500001106A23F001706A0D0051F20D0051120D021
:2013C0004500C011069D3F004500001106123D004302C0281521E0D026050018172020D1EC
:2013E000C4FFFF18264300198401C00006093D00340800018400400504E0BF05150200D863
:20140000150100D8150000D8C41CE0D1040180013A880B0004100821051D60D5C51CA0D523
:20142000451D20D0851D20D0001A0201150380D81705A0D0051D60D5C51CA0D5030280106D
:20144000451D20D08400C000C41C60D52604C010C400C000260EC0104400C0001E25C01048
:2014600034080001150200D8150100D8150000D83A880FA8040180013A880B00041008215C
:20148000851DA0D0001A0201150380D80619000034080001C4008005C41CE0D104018001F1
:2014A0003A880B0004100821150200D8150100D8150000D8851DA0D5001A0201840080011F
:2014C00034080001150200D8150140DD150080D9C41CE0D13A880B0004100821150380D834
:2014E000C51C20D0051DA0D5001A0201150380D806780000851C20D044074005C41CA0D503
:20150000C400C005831CA0D0360F80A88400800134080001150200D8150180DD150080D9B4
:20152000C41CE0D13A880B0004100821C51C20D0051DE0D5001A0201150380D8031DA0D04B
:201540004C00801026040010051A20D0C407400504E0BF0506060000831CA0D08407000107
:2015600044008010851CA0D0800A020106E53F00031AA0D0361780A80401C000051DE0D036
:201580001705E0D034080001C41CE0D13A8885188302801004018001150200D8150100D8DA
:2015A000150000D83A880B0004100821C51CA0D5451D20D0851DA0D0001A0201150380D8ED
:2015C000031AA0D0851C20D044008010051AA0D006E73F00851C20D0C41C60D5C400C0052F
:2015E0008400000734080001150200D8150140DD150000DFC41CE0D1840080013A880B00AA
:2016000004100821C51C20D0051DE0D5001A0201150380D8031DA0D0C41CA0D54C00801097
:201620001E060010831CA0D08407000144008010851CA0D0800A020106EA3F001721E0D052
:20164000C43F80001E218018851C20D044074005C400C005831CA0D0360F80A88400800105
:2016600034080001150200D8150180DD150080D9C41CE0D13A880B0004100821C51C20D0F1
:20168000051DE0D5001A0201150380D8031DA0D00C10801026070010831CE0D08407800013
:2016A0001E0A80184322A0D0440080104522A0D006060000831CA0D084070001440080106F
:2016C000851CA0D0800A020106E23F001721A0D01520A0D04322E0D01706A0D02602001816
:2016E0004401C000064B3C004400C00006493C008400C00006473C003A888B11170040291E
:2017000035004021040180101EFBFF101710E0D0440080001EFCBB180061000106FA3B0051
:20172000CC3F00217AD004203A8809218C2A00214C1580103AB08820BAD004203A8809212F
:201740003A880921CC0C80100C3300213AB088203AD104203A9108203AB004113A2800F8C8
:20176000052420D13A2800F8440080000524A0D0CCFFFF39261400383AD4043004FBFFDE05
:20178000C50380D9450380D83AD204301500C0D9150200D8850380D8C4008000050380D827
:2017A000170580D80403C0D904018001150180D81504C0DF001A02013A8805001704C0DFCB
:2017C0000405C0DE3A2800F83A8805003A2800F804F5FFDE150940DD150800DD1507C0DC24
:2017E000150680DC150400DC150AC0DF150540DC3A8825203A88272844C4090484010005D2
:20180000440140058403C0D9440080013A880B983A880990150200D8150100D8150000D8CF
:20182000850300DD001A0201040380D884004004150200D8150180D8150040DC8403C0D951
:20184000440080013A880B983A880990C4FF3F84850340DD001A020126050080030380D8B2
:20186000CC0080101EE77F143A8805000601000044008000170AC0DF170940DD170800DDE9
:201880001707C0DC170680DC170540DC170400DC040BC0DE3A2800F804F2FFDE150C00DF0C
:2018A000440000071507C0DC150DC0DF150BC0DD150A80DD150940DD150800DD150680DC7F
:2018C000150540DC150400DC052420D7CCFFFF3C1E0200983A88050006410000CC3FC039ED
:2018E0001E3E00383A922030170E00DD3AD226983A8825283A8823203A8839003AC82185B5
:201900008400400544008005C400C005CCFFFF983A8805A4263100183AD406103AD204102C
:20192000C50300D84503C0D8850380D8170F80D8261000100724A0D00503C0DD1E0600100F
:201940003A880B903A880988007D01013A883910CC3F801026DF3F1004408000150200D8AB
:20196000150100DD150080D80403C0D904018001061400003A880B903A880988050340DDF2
:20198000007D01013A883910CC3F80101E1300100403C0D904018001150280DD150100D859
:2019A000150000D83A880B903A880988001A02013A880FA0150200D8150100D8150000D832
:2019C000044080013A880B903A880988001A0201044000A5C4FFFF9C06CC3F003A8805E076
:2019E000170DC0DF170C00DF170BC0DD170A80DD170940DD170800DD1707C0DC170680DC79
:201A0000170540DC170400DC040EC0DE3A2800F804F5FFDE150500DC3A8821301508C0DCF5
:201A2000840180003A882738150200D8150100D8150000D80403C0D944008001CC3F0084C2
:201A4000150780DC150640DC150AC0DF150900DD3A8823203A882528050380D8001A02018D
:201A6000260D008004088000150200D8150100D8150000D80403C0D9040180013A880B90DA
:201A80003A880988050380D84503C0DC850300D8C50300D8001A020144018000B40B00040A
:201AA000050380D844B031844400C004040400DD150200D8150100DD1500C0DC0403C0D9FD
:201AC000440080013A880B903A880988C4FF3F84001A0201260500800304C0D84C00C01880
:201AE0003A8805181EF23F180601000044008000170AC0DF170900DD1708C0DC170780DCE3
:201B0000170640DC170500DC040BC0DE3A2800F8161B00203A880F00161600283A880D2028
:201B20002E1A0029040880004400C00006010000260D00103A884B29C4FFBF103A88C718F1
:201B400036FB3F293A880500260700183A880500360240313AC84D313AB0C4107AD00618CA
:201B60007AD00A281EFA3F18260100383AC885003A2800F83AC84B015C00C03906E73F006B
:201B80003AC809014400C00106E33F004400C00006EE3F00161700203A880F003A880520D0
:201BA000161200282E160029040880014400C00006010000260A00303A884B29C4FFBF3187
:201BC0003A88C71836FB3F29260500187AD00618360140113AC845117AD00A281EFB3F1854
:201BE000260100383AC885003A2800F83AC84B0106EC3F003AC809014400C00106E73F00E9
:201C00004400C00006F13F003A880D202E15002916140028040880004400C0000602000045
:201C2000260E0010160500283A884B29C4FFBF103A88C71836FA3F29260800183A8805000F
:201C4000360240313AC84D313AB0C4107AD006187AD00A281EFA3F183A2800F83A88050029
:201C60003A2800F84400C00006F43F003A8805202E12002916110028040880014400C0009D
:201C800006020000260C0030160500283A884B29C4FFBF313A88C71836FA3F292606001831
:201CA0007AD00618360140113AC845117AD00A281EFB3F183A2800F83A2800F84400C00038
:201CC00006F73F003A880500260700204C00C0207AD00820260100183A8845113A884B2989
:201CE0001EFA3F203A2800F83A2800F804FDFFDE1502C0DF150140DC150000DCC403C0007B
:201D00003A8805202E4580193AB00629CC00C0181E44001804FC7F343AD122880401C02844
:201D2000040140233A9120880402002B0402C022040500840403802A040340223A88212CF9
:201D40003A8811283A880F20170000411700C01F1700C06315000039170080531500C06F93
:201D60001500C05B1500804B0404C0180404C039040400420404406B040400630404C05AE8
:201D8000040480520404404A1EEF3F1C4400C0893A910E38CC030031C400C0023A88C711B1
:201DA0003A88CB292E2100593A8813183A8811283A880F20170080420401404A04FFFF3949
:201DC00015FFBF4A0401004236FAFF5904FF3F21BAD00820CC008031440000213A88092134
:201DE0003A8809213A8807193A880B29260600303A888D190300C0294400C01844004029A6
:201E0000C5FFFF191EFBBF191702C0DF170140DC170000DC0403C0DE3A2800F83A8807202E
:201E200006F23F003A88072006F13F003A880D2006EE3F00CC00C0203A8805202644001815
:201E4000C4FFFF31264000303A8813283A880D203A88072006040000C4FF3F3A44008031E9
:201E6000263900383A880F404400C01805004032CC00001A1EF83F40C40000012E2DC021AB
:201E8000CC3F00293A920C203AB008313A940C203AB08C21C40300012E18C02104FC3F3BF9
:201EA0003AD118600401001A0402C01A3A9108600403801A3A881318040500213A880919D1
:201EC00015008049150080411500805915008051040400420404404A0404C05A04048052A2
:201EE0001EF73F41440000633A911860CC03C039C40000013A88071B2E0EC0213A881318E8
:201F00003A881138C40000011500804904FF3F420401404A36FC3F2204FF3F39BAD0082040
:201F2000CC00C039440000213A8809213A8809213A880719260500383A88CF190500401952
:201F40004400C0181EFDFF383A2800F83A2800F83A8807203A880F3006C73F0004FCFFDE8C
:201F6000150300DF040300DF15FD3FE115FE7FE115FFBFE117FEFFE017FDBFE0260C8018BA
:201F80000608000017FEBFE00401C01015FEFFE017FDFFE00401001915FD3FE11700C01886
:201FA0001500C01017FEFFE017FFBFE01EF5BF183A8801003A8837E0170000DF0401C0DE74
:201FC0003A2800F804FEFFDE1501C0DF150000DF3A8839D83408800104BB813134084001A1
:201FE000040740293404000104010E21C0F5010134048001048C8031340440010408402961
:202000003404000104080021C0F50101340880010407803134084001040040293404000107
:2020200004FA0D21C0F5010100EE0201C00C03013A8801003A8837E01701C0DF170000DFB3
:202040000402C0DE3A2800F804FDFFDE1502C0DF150100DF040100DF3A880900C010020177
:202060003A88010040140201C000030134040001041B0C21004D03011725A0D01726E0D013
:20208000172720D13A880D203A880B183A8809108064000115FFBFE04400000180E0020122
:2020A00017FF3FE1404E030104FDFFDE1502C0DF150100DF040100DF15FF3FE117FF3FE181
:2020C00040C702013A8837E01701C0DF170000DF0402C0DE3A2800F804FDFFDE1502C0DFDE
:2020E000150100DF040100DF15FF3FE1040960D117FF3FE180F602013A8837E01701C0DF56
:20210000170000DF0402C0DE3A2800F804FDFFDE1502C0DF150100DF040100DF15FF3FE12A
:2021200000410301440080003A7001103A8801003A8837E01701C0DF170000DF0402C0DEEE
:202140003A2800F804FEFFDE1501C0DF150000DF3A8839D83A8801003A8801003A88010081
:202160003A880100440080013A880B003408000104110021C04A0201340800010407002121
:20218000800D02013A8801003A8801003A8837E01701C0DF170000DF0402C0DE3A2800F8A5
:2021A00004F4FFDE150B00DF040B00DF15FC3FE115FD7FE115FEBFE115FFFFE117FFFFE01E
:2021C00017FEBFE03A88851815F8BFE01702C0E0170180E03A88851815F9BFE0170180E08B
:2021E00015F5BFE017FEBFE015F6BFE04400800015F7BFE017FCBFE0040580103A88091043
:202200004400C00017FDBFE03A98841835008020170380E08C0080101E05001017FCBFE049
:20222000040380103A880710040081003500801817FCBFE03700801017FCBFE0040280101B
:202240003700801015FABFE017FABFE00C1080102602001017F7BFE01E03001017FABFE0E7
:202260000C20801026F43F1017FABFE00C108010261E001017F7BFE00E1C800017F7BFE085
:20228000C4FFBF1015F7BFE017FFFFE017F8BFE02E0A801817FCBFE0040180103A8809106C
:2022A00017FFBFE04400C01015FFFFE003008010CC3F801035008020060C000017F5BFE0A2
:2022C0002608001017F5BFE0C4FFBF1015F5BFE017FCBFE0040180103A8807003500C010C5
:2022E000060200000400BF0015F7BFE017FABFE00C20801026D03F1017FCBFE0370080103E
:2023000015FBBFE017F6BFE02604001017F6BFE0C4FFBF1015F6BFE006050000170280E0BC
:202320004400C0101502C0E017FBFFE00500C01017F7BFE04400801015F7BFE017F6BFE034
:202340001EBD3F101702C0E017F9BFE01EBABF1817FCBFE0040280103700801015FABFE07F
:2023600017FABFE00C08801026F93F10170380E04C0080101E04001017FCBFE004038010CA
:202380003A8807003500C010170180E03A8837E0170000DF0401C0DE3A2800F804FAFFDE50
:2023A0001505C0DF150400DF040400DF15FD3FE115FE7FE115FFBFE117FDBFE017008010D2
:2023C00015FCBFE017FCBFE0040AC01017FDBFE0170280103A880F1017FFBFE117FE7FE155
:2023E0003A880918008B02013A8837E01701C0DF170000DF0402C0DE3A2800F804FAFFDE0D
:202400001505C0DF150400DF040400DF15FD3FE115FE7FE115FFBFE117FDBFE01700801071
:2024200015FCBFE017FCBFE0040AC01017FDBFE0170280103A880F1017FFBFE117FE7FE1F4
:202440003A88091880AC02013A8837E01701C0DF170000DF0402C0DE3A2800F804FCFFDE09
:202460001503C0DF150200DF040200DF15FF3FE117FFBFE01700801015FEBFE017FEBFE0D4
:20248000040AC01017FFBFE0170280103A880B103A880918008202013A8837E01701C0DF2B
:2024A000170000DF0402C0DE3A2800F804F8FFDE1507C0DF150600DF040600DF15FD3FE17F
:2024C00015FE7FE115FFBFE117FDBFE01700801015FBBFE03A8805001E0400103A8805000C
:2024E0001E0200103A8805002602001044008000060100003A88050015FCBFE017FCBFE0B9
:202500001E0F001017FDBFE00420C3001501C01017FBBFE00403801017FDFFE01701C018D3
:202520003500C010150000D817FDFFE1340480010456893117FF7FE117FE3FE1C00E03016B
:202540003A8801003A8837E01701C0DF170000DF0402C0DE3A2800F804FAFFDE1505C0DFA0
:20256000150400DF040400DF15FF3FE117FFBFE015FCBFE017FCBFE01700801015FDBFE0D9
:2025800017FDBFE0040280103700801015FEBFE017FDBFE0040280103A8807003500C01062
:2025A00017FDBFE0040280103700801017FEBFE00C2080102603001017FE7FE117FC3FE1BA
:2025C000405F020117FEBFE00C1081102603001017FE7FE117FC3FE1806D02013A88010064
:2025E0003A8837E01701C0DF170000DF0402C0DE3A2800F804FCFFDE150300DF040300DF9D
:2026000015FE3FE115FF7FE117FFBFE0CC0080101E2C001017FEBFE01703801017FEBFE096
:202620001702801017FEBFE01703801044008010CC0F801015FDBFE017FEBFE01703801045
:2026400017FEFFE01700C0183700C0183A88091817FEFFE03A8885180407801005000011A1
:2026600017FEBFE017FDFFE01503C01017FEBFE01703801044008010CC0F801015FDBFE07D
:2026800017FEBFE01702C01017FDBFE01E0E801817FEBFE01701C010C4DFBF003A708618E0
:2026A00017FEBFE01501C01017FEBFE0170080100403801017FEFFE01701C0183500C010A5
:2026C000060100003A8801003A8837E0170000DF0401C0DE3A2800F804FBFFDE150400DF90
:2026E000040400DF15FC3FE115FD7FE117FCBFE01704C01017FCBFE0170580102632801865
:2027000017FCBFE0170680108C0080102603001017FDBFE00C008210261D001017FCBFE0AF
:202720001704801017FCBFE01705801017FCBFE0170080100401801017FCFFE01704C018BD
:2027400017FC3FE13A88C7200417C0180300C018CC3FC0183500C01017FCBFE0170480108A
:202760004400801017FCFFE015048018CC0FC01017FCBFE01504C01017FCBFE01701801042
:202780001410C01017FCBFE01501C010060E000017FCBFE0170080100402801037008010E3
:2027A00015FDBFE017FDBFE00C0082101E06001017FCBFE01701C010C4EFBF003A7086188F
:2027C00017FCBFE01501C01017FCBFE01704C01017FCBFE0170580101E06801817FCBFE0F8
:2027E0001701C010C4EFBE003A70861817FCBFE01501C01017FCBFE01700801004038010B0
:2028000017FCFFE01701C0183500C0103A8801003A8837E0170000DF0401C0DE3A2800F842
:2028200004FDFFDE150200DF040200DF15FE3FE115FF7FE10605000017FFBFE00C009010CC
:202840002602001044FDBF000606000017FEBFE01704C01017FEBFE0170580101EF6BF184A
:202860003A8805003A8837E0170000DF0401C0DE3A2800F804FEFFDE1501C0DF150000DF3D
:202880003A8839D8170CA0D026030010170CA0D03AE83E1006010000042AA0D03A8837E018
:2028A0001701C0DF170000DF0402C0DE3A2800F804F2FFDE150DC0DF150C00DF040C00DFEA
:2028C00015FC3FE115FD7FE115FEBFE115FFFFE105F43FE015F53FE017FFBFE00C0090100C
:2028E0003A000510CC3F801015F6BFE00613000017F5BFE04400801015F5BFE017FDBFE050
:202900004400C01015FDFFE017FCFFE01702C01817FC3FE13A88C7200407C0180300C01835
:202920000500C01017FCBFE01702801044008010CC0FC01017FCBFE01502C01017F5FFE064
:2029400017FEBFE00E05801817FCBFE01702C01017FCBFE0170380101EE5BF1817F5BFE09C
:202960001E25001017FCBFE01702C01017FCBFE0170380101E20801817F6BFE01E07001056
:20298000408702013A880710C4028000150080184400800005F4BFE0061B00003A300500B5
:2029A00015F9BFE017F9FFE084FFBF003A7084183A70011017F9BFE015F8BFE017FCBFE02B
:2029C000170180101420C01017FCBFE01501C01017FCBFE0170080100403801017FCFFE0D1
:2029E0001701C0183500C01017F8BFE015FABFE017FABFE03A70011017F5BFE01E02001040
:202A000017FEBFE01ECD3F103A30050015FBBFE017FBFFE084FFBF003A7084183A70011076
:202A200017FBBFE015F8BFE017FCBFE0170180101420C01017FCBFE01501C01017FCBFE091
:202A4000170080100403801017FCFFE01701C0183500C01017F8BFE015F7BFE017F7BFE04B
:202A60003A70011003F4BFE02602001044FDBF000601000017F5BFE03A8837E01701C0DF8B
:202A8000170000DF0402C0DE3A2800F804FEFFDE1501C0DF150000DF3A8839D8170CA0D054
:202AA00026030010170CA0D03AE83E1006010000042AA0D03A8837E01701C0DF170000DFAF
:202AC0000402C0DE3A2800F804F2FFDE150DC0DF150C00DF040C00DF15FC3FE115FD7FE1D2
:202AE00015FEBFE115FFFFE117FEBFE015F4BFE017FFBFE00C00901015F5BFE0063C000087
:202B000017FCBFE01705801044008010CC0F801015F7BFE017FCBFE01704C01017F7BFE023
:202B20001E22801817F5BFE026050010C0A802013A880710C402800015008018062E00006C
:202B40003A30050015F9BFE017F9FFE084FFBF003A7084183A70011017F9BFE015F8BFE0CC
:202B600017FCBFE0170180101410C11017FCBFE01501C01017FCBFE017008010040380107E
:202B800017FCFFE01701C0183500C01017F8BFE015F6BFE017F6BFE03A70011017FCBFE0DD
:202BA0001704C01017F7BFE026FCBF1817F4BFE0C4FFBF1015F4BFE017FCBFE01705C01002
:202BC00017FDBFE04400001115FD3FE1030080103A88091017FCBFE03A88C5100417801059
:202BE0000500001117FCBFE017F7FFE01505C01017F4BFE01EC23F103A30050015FBBFE03F
:202C000017FBFFE084FFBF003A7084183A70011017FBBFE015F8BFE017FCBFE017018010C9
:202C20001410C11017FCBFE01501C01017FCBFE0170080100403801017FCFFE01701C01835
:202C40003500C01017F8BFE015FABFE017FABFE03A70011017FEFFE017F4BFE03AC885186B
:202C60003A8837E01701C0DF170000DF0402C0DE3A2800F804FAFFDE1505C0DF150400DF44
:202C8000040400DF15FF3FE14402800015FDBFE0F40340010490502917FD3FE140CC01011B
:202CA0003A880B10B49800010480162180C001013A880B1034002001C4FF3F2180C0010156
:202CC0003A880B1017FF3FE180C0010115FEBFE017FEBFE0262A001015FC3FE0061700008C
:202CE0003400A000C4FFBF10C4FFBF101EFE3F10F40340010490502917FD3FE140CC0101EA
:202D00003A880B10B49800010480162180C001013A880B1034002001C4FF3F2180C00101F5
:202D20003A88071017FFBFE03AC8C51015FFBFE017FCBFE04400801015FCBFE017FCFFE053
:202D400017FEBFE016E6BF18F40340010490502917FD3FE140CC01013A880B10B49800013B
:202D60000480162180C0010117FF7FE13A88091040CC0101C4FFBF101EFE3F10060D0000E7
:202D8000F40340010490502917FD3FE140CC01013A880B10B49800010480162180C0010185
:202DA00017FF7FE13A88091040CC0101C4FFBF1016FEBF003A8805003A8837E01701C0DFF8
:202DC000170000DF0402C0DE3A2800F804FEFFDE1501C0DF150000DF3A8839D8170CA0D011
:202DE00026030010170CA0D03AE83E1006010000042AA0D03A8837E01701C0DF170000DF6C
:202E00000402C0DE3A2800F804FBFFDE1504C0DF150300DF040300DF15FF3FE117FFBFE05A
:202E2000160800100403400117FF3FE140CC01013A88071034088000044280103A8885180E
:202E4000060100003A88050015FDBFE017FDBFE02619001017FDBFE01700801017048010EC
:202E60002606001017FDBFE0170080101704801017FD3FE13AE83E10060100003A8805009F
:202E800015FEBFE017FF3FE1C038030117FEBFE00E070010C0DC02013A88071017FEBFE049
:202EA0003AC8850015008018C4FFBF00060700003A88050006050000C0DC02013A88071005
:202EC0004414800015008018C4FFBF003A8837E01701C0DF170000DF0402C0DE3A2800F867
:202EE00004FFFFDE150000DF3A8839D83A8801003A8837E0170000DF0401C0DE3A2800F89C
:202F000004FCFFDE150300DF040300DF15FD3FE115FE7FE115FFBFE117FFBFE03A8837E010
:202F2000170000DF0401C0DE3A2800F804FEFFDE1501C0DF150000DF3A8839D8170CA0D0B0
:202F400026030010170CA0D03AE83E1006010000042AA0D03A8837E01701C0DF170000DF0A
:202F60000402C0DE3A2800F804FAFFDE1505C0DF150400DF040400DF15FE3FE115FF7FE139
:202F800017FEBFE02603001017FEBFE0170280101E060010C0F202013A880710840580001C
:202FA0001500801884FABF000613000017FEBFE017FFFFE015FCFFE015FDBFE017FDBFE011
:202FC00017FCFFE01501C01017FCBFE01700C01017FDBFE01500C01017FCBFE0170080108F
:202FE00017FDFFE01501C01017FCBFE017FDFFE01500C0103A8805003A8837E01701C0DF17
:20300000170000DF0402C0DE3A2800F804FDFFDE1502C0DF150100DF040100DF3404800097
:2030200004F98D1015FFBFE00606000017FFBFE0170080103AE83E1017FFBFE004FFBF10E4
:2030400015FFBFE017FFFFE03404800004FA8D102EF6BF183A8801003A8837E01701C0DF27
:20306000170000DF0402C0DE3A2800F804FDFFDE1502C0DF150100DF040100DF3404800037
:2030800004F98D1015FFBFE00606000017FFBFE0170080103AE83E1017FFBFE004FFBF1084
:2030A00015FFBFE017FFFFE03404800004FA8D102EF6BF183A8801003A8837E01701C0DFC7
:2030C000170000DF0402C0DE3A2800F804FFFFDE150000DF3A8839D83A8801003A8837E0B9
:2030E000170000DF0401C0DE3A2800F804F9FFDE1506C0DF150500DF040500DF15FC3FE137
:2031000015FD7FE115FEBFE115FFFFE1170280E0150080D817FFFFE117FEBFE117FD7FE191
:2031200017FC3FE1C02903013A8837E01701C0DF170000DF0402C0DE3A2800F804F9FFDE11
:20314000150600DF040600DF15FE3FE115FF7FE117FFBFE015FABFE03A30050015FBBFE064
:2031600017FBFFE084FFBF003A7084183A70011017FBBFE015FCBFE04400C00017FABFE006
:203180003A9884183A8807101728A0D03AB084181528A0D01728A0D0FA70011017FCBFE02A
:2031A00015FDBFE017FDBFE03A7001103A8805003A8801003A8837E0170000DF0401C0DEF4
:2031C0003A2800F804F9FFDE150600DF040600DF15FE3FE115FF7FE117FFBFE015FABFE0CE
:2031E0003A30050015FBBFE017FBFFE084FFBF003A7084183A70011017FBBFE015FCBFE01C
:203200004400C00017FABFE03A9884183A3084003A8807101728A0D03A7084181528A0D023
:203220001728A0D0FA70011017FCBFE015FDBFE017FDBFE03A7001103A8805003A88010009
:203240003A8837E0170000DF0401C0DE3A2800F804FCFFDE150300DF040300DF15FE3FE1B5
:2032600015FF7FE1FA30050015FDBFE04400C00017FFBFE03A9884183A88071017FDBFE047
:203280003A7084183AC00410CC3F80103A8837E0170000DF0401C0DE3A2800F804F5FFDE9D
:2032A000150AC0DF150900DF040900DF15FC3FE115FD7FE115FEBFE115FFFFE184FABF00E0
:2032C00015F7BFE017FDBFE015F8BFE017F8BFE0080880101E2700103A30050015FBBFE023
:2032E00017FBFFE084FFBF003A7084183A70011017FBBFE015FABFE03408800004368210B3
:2033000017F8FFE0FA9006183A88C51017FEFFE01500C010340880000436821017F8FFE031
:20332000FA9006183A88C5100401801017FFFFE01500C01017FEBFE02605001017F8BFE042
:203340003A880B1017FC3FE1C01303010604000017F8BFE03A880B1017FC3FE1401C03015E
:2033600015F7BFE017FABFE015F9BFE017F9BFE03A70011017F7BFE03A8837E01701C0DF9E
:20338000170000DF0402C0DE3A2800F804FCFFDE1503C0DF150200DF150100DC040200DFD8
:2033A00015FE3FE117FEBFE0D00080101E110010340800040442008417FEBFE00403400181
:2033C0003A88091040CC01013A8885800402801015000010340800040442008417FEBFE0C4
:2033E000040340013A88091040CC01013A888580150000103A88010004FFFFE61702C0DF4D
:20340000170100DF170000DC0403C0DE3A2800F804FFFFDE150000DF3A8839D8FA700100B1
:203420003A8801003A8837E0170000DF0401C0DE3A2800F804FEFFDE150100DF040100DF45
:2034400015FF3FE117FFBFE084FEBF102804C0101E1A0018BA90061034048000041B8D1012
:203460003A888518170080103A680010AC341000AC341000BC341000BC341000BC341000B4
:20348000AC341000B4341000BC341000AC341000AC341000BC341000AC341000B43410007C
:2034A000BC341000BC341000AC34100044008000060300003A880500060100003A880500BA
:2034C0003A8837E0170000DF0401C0DE3A2800F83A880B203A880F003A880D003A880900C8
:2034E000C151030104FEFFDE3A880B00150000DC1501C0DF3A8821204063030134088000FE
:2035000004B9811017000011170F8020260100103AE83E103A880980407B030104FAFFDEE3
:20352000150300DC3408000404B901841700C080150440DC1505C0DF175280183A882320CA
:20354000263700101701C010C4070001160EC0204400001A1E2200888400C0183A88C71823
:203560003A88C718150100123A88C710150040193A8805001705C0DF170440DC170300DCCC
:203580000406C0DE3A2800F834008000040080102626001004640001150040D9150180D97F
:2035A0001502C0D900000000170040D9170180D91702C0D9261D00101700008115010010F7
:2035C00044000002175240223A8807001500401215528020156200101563001026DE3F88C9
:2035E0003A88C9183A8809213A8809111522802144008001176240123A98CC303AB0924965
:20360000156240121542C021840000011ED23F89176300113AB08C211563801106CE3F002E
:20362000045380181552801806C63F00C4FFBF0006D03F0004F5FFDE150900DF150640DDEF
:20364000150380DC150AC0DF1508C0DD150780DD150500DD1504C0DC150240DC150100DC34
:20366000150000D93A88392844008004C4FF7F053408800004B98110170000121752004549
:203680000452C044261C00A0170180A0C4FFFF15160D00B8440000143A8821843A882184DE
:2036A000042040843A8863A43A8821A4261E00E017408080261C80E0C4FFFFBD04FF3F8470
:2036C00004FF7F8C1EF97FBD340080000400801026090010170180A01E300010170080A035
:2036E000263200103A8809A015008098000000001700009D1EE43FA0170AC0DF170900DF76
:203700001708C0DD170780DD170640DD170500DD1704C0DC170380DC170240DC170100DCE9
:20372000040BC0DE3A2800F8170180A01700C080C4FFBF102614C0151500008026DE3F1862
:203740003A98C895176280A0170180A53A708420260B0010176380A03A7088201E0C00209F
:2037600017004089170000D93AE83E18170180A01EBFBF151700809826CF3F1506BC3F009F
:203780003AE83E1806F93F001501C0A506EB3F00170000893AE83E1806F43F00170080A040
:2037A0003A8827A03A88291006B63F003A88050006FB3F0004FDFFDE150200DF040200DFCA
:2037C00015FF3FE13A88010017FFBFE015FEBFE017FEBFE02602001070F02A00060100000E
:2037E000B0F02A0006FF3F002F6465762F756172740000002F6465762F6E756C6C0000000A
:2038000043000000000000000000000000002000000000005C2410009C231000FC231000B7
:203820000000000000000000000000008020200000000000000000000000000000000000C8
:20384000000000000100000000000000000000000000000000000000000000000000000067
:20386000000000000000000000000000000000000000000000000000000000000000000048
:20388000000000000000000000000000000000000000000000000000000000000000000028
:2038A000000000000000000000000000000000000000000000000000000000000000000008
:2038C0000000000000000000D0062000D00620000C002000000000000000000000000000D0
:2038E000002F1000000000000000000000000000E00020000000000000000000E000200089
:203900000000000000000000E00020000000000000000000000000000000000000000000A7
:20392000000000000000000000000000000000000000000000000000000000000000000087
:20394000000000000000000000000000000000000000000000000000000000000000000067
:20396000000000000000000000000000000000000000000000000000000000000000000047
:20398000000000000000000000000000000000000000000000000000000000000000000027
:2039A000000000000000000000000000000000000000000000000000000000000000000007
:2039C0000000000000000000000000000000000000000000000000000000000000000000E7
:2039E0000000000000000000000000000000000000000000000000000000000000000000C7
:203A00000000000000000000000000000000000000000000000000000000000000000000A6
:203A2000000000000000000000000000000000000000000000000000000000000000000086
:203A4000000000000000000000000000000000000000000000000000000000000000000066
:203A6000000000000000000000000000000000000000000074052000DC0520004406200042
:203A8000000000000000000000000000000000000000000000000000000000000000000026
:203AA0000000000018002000000000000000000000000000000000000000000000000000CE
:203AC0000000000000000000000000000000000000000000000000000000000000000000E6
:203AE0000000000000000000000000000000000000000000000000000000000000000000C6
:203B0000000000000000000000000000000000000000000001000000000000000E33CDABEB
:203B200034126DE6ECDE05000B000000000000000000000000000000000000000000000012
:203B4000000000000000000000000000000000000000000000000000000000000000000065
:203B6000000000000000000000000000000000000000000000000000000000000000000045
:203B8000000000000000000000000000000000000000000000000000000000000000000025
:203BA000000000000000000000000000000000000000000000000000000000000000000005
:203BC0000000000000000000000000000000000000000000000000000000000000000000E5
:203BE0000000000000000000000000000000000000000000000000000000000000000000C5
:203C00000000000000000000000000000000000000000000000000000000000000000000A4
:203C2000000000000000000000000000000000000000000000000000000000000000000084
:203C4000000000000000000000000000000000000000000000000000000000000000000064
:203C6000000000000000000000000000000000000000000000000000000000000000000044
:203C8000000000000000000000000000000000000000000000000000000000000000000024
:203CA000000000000000000000000000000000000000000000000000000000000000000004
:203CC0000000000000000000000000000000000000000000000000000000000000000000E4
:203CE0000000000000000000000000000000000000000000000000000000000000000000C4
:203D00000000000000000000000000000000000000000000000000000000000000000000A3
:203D2000000000000000000000000000000000000000000000000000000000000000000083
:203D4000000000000000000000000000000000000000000000000000000000000000000063
:203D6000000000000000000000000000000000000000000000000000000000000000000043
:203D8000000000000000000000000000000000000000000000000000000000000000000023
:203DA000000000000000000000000000000000000000000000000000000000000000000003
:203DC0000000000000000000000000000000000000000000000000000000000000000000E3
:203DE0000000000000000000000000000000000000000000000000000000000000000000C3
:203E00000000000000000000000000000000000000000000000000000000000000000000A2
:203E2000000000000000000000000000000000000000000000000000000000000000000082
:203E4000000000000000000000000000000000000000000000000000000000000000000062
:203E6000000000000000000000000000000000000000000000000000000000000000000042
:203E80000000000000000000000000000000000000000000FFBF080000A0040098072000F9
:203EA0002C010000B40000009808200058072000C8062000C8062000E0002000E000200006
:203EC000FFFFFFFF00000000FFFFFFFF880220008802200000000000000000000000000096
:203EE0000000000000000000000000000000000000000000000000000000000000000000C2
:203F00000000000000000000000000000000000000000000000000000000000000000000A1
:203F2000000000000000000000000000000000000000000000000000000000000000000081
:203F4000000000000000000000000000000000000000000000000000000000000000000061
:0200000280007C
:00000001FF
